:100000000C942A000C9449130C947C130C94AF1399
:100010000C9447000C9447000C9447000C94421E2B
:100020000C9447000C94F51D0C945A1C0C940E1C57
:100030000C9447000C9447000C9447000C94470024
:100040000C9447000C9447000C9447000C94470014
:100050000C94470011241FBECFE5D8E0DEBFCDBF12
:1000600012E0A0E6B0E0E6EDF0E502C005900D92EA
:10007000A838B107D9F712E0A8E8B2E001C01D9294
:10008000A23AB107E1F70E9420210C9469280C9450
:100090000000EF92FF920F931F937B018C0120E0F1
:1000A00030E040E05FE40E94F50388238CF0C80153
:1000B000B70120E030E040E05FE40E94C1010E940F
:1000C00085049B01AC01205030404040504806C0A0
:1000D000C801B7010E9485049B01AC01B901CA01A6
:1000E0001F910F91FF90EF900895A0E0B0E0EBE733
:1000F000F0E00C943228DC012B01FA019C91923043
:1001000008F439C1EB018881823008F433C194309E
:1001100069F4843009F02FC111969C91119789815F
:10012000981709F428C1A0E7B1E025C1843009F48B
:1001300021C18230A9F4923009F01DC19A01AD01AC
:1001400088E0EA010990AE01E90109929E0181501F
:10015000C1F7E201898111969C918923818308C1AD
:10016000923009F407C112962D903C901397EB0141
:100170008A819B811496AD90BD90CD90DC901797AD
:10018000EC80FD800E811F819101281B390BB90184
:1001900037FF04C066277727621B730B6032710537
:1001A0000CF061C0121613066CF537014801062EDB
:1001B00004C096948794779467940A94D2F721E0C8
:1001C00030E040E050E004C0220F331F441F551FB1
:1001D0006A95D2F721503040404050402E213F21B7
:1001E00040235123211531054105510521F021E01E
:1001F00030E040E050E079018A01E628F72808293C
:1002000019293CC0232BD1F1260E371E350146019A
:10021000062E04C096948794779467940A94D2F734
:1002200021E030E040E050E004C0220F331F441FC3
:10023000551F6A95D2F721503040404050402A2146
:100240003B214C215D21211531054105510521F04E
:1002500021E030E040E050E059016A01A628B728CB
:10026000C828D9280BC0821593052CF01C01AA249C
:10027000BB24650103C0EE24FF24870111969C91E5
:10028000D20111968C91981709F445C0992339F041
:10029000A80197012A193B094C095D0906C0A6016E
:1002A00095012E193F09400B510B57FD08C01182D3
:1002B0003382228224833583468357831DC081E0A5
:1002C00081833382228288279927DC01821B930B4A
:1002D000A40BB50B84839583A683B7830DC0220F2F
:1002E000331F441F551F24833583468357838281E0
:1002F000938101979383828324813581468157813D
:10030000DA01C9010197A109B1098F5F9F4FAF4F72
:10031000BF4328F30BC0918333822282EA0CFB1C7B
:100320000C1D1D1DE482F5820683178383E0808304
:10033000248135814681578157FF1AC0C901AA27F8
:1003400097FDA095BA2F81709070A070B0705695EF
:10035000479537952795822B932BA42BB52B848318
:100360009583A683B7838281938101969383828349
:10037000DF0101C0D201CD01CDB7DEB7E2E10C94BF
:100380004E28A0E2B0E0E7ECF1E00C943E2869834F
:100390007A838B839C832D833E834F835887E9E048
:1003A000EE2EF12CEC0EFD1ECE010196B7010E943F
:1003B00076068E010F5E1F4FCE010596B8010E9492
:1003C00076068A8991E089278A8BC701B801AE0138
:1003D000475E5F4F0E9475000E94A105A096E6E06F
:1003E0000C945A28A0E2B0E0E8EFF1E00C943E282B
:1003F00069837A838B839C832D833E834F835887C5
:10040000F9E0EF2EF12CEC0EFD1ECE010196B701A6
:100410000E9476068E010F5E1F4FCE010596B80131
:100420000E947606C701B801AE01475E5F4F0E9489
:1004300075000E94A105A096E6E00C945A28A0E25F
:10044000B0E0E5E2F2E00C94322869837A838B8392
:100450009C832D833E834F835887CE010196BE0136
:10046000675F7F4F0E947606CE010596BE016F5EE4
:100470007F4F0E9476069985923088F08989823074
:10048000C8F0943019F4823051F404C0843029F457
:10049000923081F480E791E0C6C0923049F420E0C8
:1004A0009A858A89981321E02A87CE010996BBC0D4
:1004B000823049F420E09A858A89981321E02A8BBA
:1004C000CE014196B0C02D843E844F8458886D88FB
:1004D0007E888F88988CEE24FF248701AA24BB2471
:1004E000650140E050E060E070E0E0E0F0E0C10174
:1004F00081709070892BE9F0E60CF71C081D191D1E
:100500009A01AB012A0D3B1D4C1D5D1D80E090E062
:10051000A0E0B0E0E614F7040805190520F481E036
:1005200090E0A0E0B0E0BA01A901480F591F6A1F8E
:100530007B1FAA0CBB1CCC1CDD1C97FE08C081E0F5
:1005400090E0A0E0B0E0A82AB92ACA2ADB2A3196B6
:10055000E032F10549F0660C771C881C991C569412
:10056000479437942794C3CFFA85EA892B893C892D
:100570008B859C85280F391F2E5F3F4F17C0CA01FE
:1005800081709070892B61F016950795F794E79428
:1005900080E090E0A0E0B0E8E82AF92A0A2B1B2BC3
:1005A00076956795579547952F5F3F4F77FDE7CF36
:1005B0000CC0440F551F661F771F17FD4160EE0CDE
:1005C000FF1C001F111F21503040403090E05907A0
:1005D00090E0690790E4790760F32B8F3C8FDB0193
:1005E000CA018F779070A070B07080349105A1051A
:1005F000B10561F447FD0AC0E114F10401051105DC
:1006000029F0405C5F4F6F4F7F4F40781A8EFE1786
:1006100011F081E08A8F4D8F5E8F6F8F78A383E01A
:10062000898FCE0149960E94A105A096E2E10C9423
:100630004E28A8E1B0E0EFE1F3E00C943A2869839A
:100640007A838B839C832D833E834F835887B9E0C5
:10065000EB2EF12CEC0EFD1ECE010196B7010E948F
:1006600076068E010F5E1F4FCE010596B8010E94DF
:1006700076062985223008F47EC03989323010F49C
:10068000B8017CC08A859A8989278A87243011F02D
:10069000223031F4231709F06EC060E771E06EC0BC
:1006A000343039F41D861E861F86188A1C861B86E8
:1006B00004C0323021F484E08987B7015FC02B8504
:1006C0003C858B899C89281B390B3C872B87ED84C3
:1006D000FE840F851889AD88BE88CF88D88CEA142F
:1006E000FB040C051D0540F4EE0CFF1C001F111F40
:1006F000215030403C872B8720E030E040E050E044
:1007000080E090E0A0E0B0E460E070E0EA14FB0478
:100710000C051D0540F0282B392B4A2B5B2BEA18C2
:10072000FB080C091D09B695A79597958795EE0CC2
:10073000FF1C001F111F6F5F7F4F6F31710531F775
:10074000DA01C9018F779070A070B0708034910584
:10075000A105B10561F427FD0AC0E114F10401050A
:10076000110529F0205C3F4F4F4F5F4F20782D87B8
:100770003E874F87588BBE01675F7F4FCB010E943A
:10078000A1056896EAE00C945628A8E1B0E0EBECED
:10079000F3E00C943E2869837A838B839C832D83BA
:1007A0003E834F83588789E0E82EF12CEC0EFD1E26
:1007B000CE010196B7010E9476068E010F5E1F4F93
:1007C000CE010596B8010E9476068985823040F0F8
:1007D0008989823028F0C701B8010E94EE0601C065
:1007E0008FEF6896E6E00C945A28A8E1B0E0EBEFB2
:1007F000F3E00C943E2869837A838B839C832D835A
:100800003E834F83588789E0E82EF12CEC0EFD1EC5
:10081000CE010196B7010E9476068E010F5E1F4F32
:10082000CE010596B8010E9476068985823040F097
:100830008989823028F0C701B8010E94EE0601C004
:100840008FEF6896E6E00C945A28A8E1B0E0EBE25E
:10085000F4E00C943E2869837A838B839C832D83F8
:100860003E834F83588789E0E82EF12CEC0EFD1E65
:10087000CE010196B7010E9476068E010F5E1F4FD2
:10088000CE010596B8010E9476068985823040F037
:100890008989823028F0C701B8010E94EE0601C0A4
:1008A00081E06896E6E00C945A28A8E1B0E0EBE518
:1008B000F4E00C943E2869837A838B839C832D8398
:1008C0003E834F83588789E0E82EF12CEC0EFD1E05
:1008D000CE010196B7010E9476068E010F5E1F4F72
:1008E000CE010596B8010E9476068985823040F0D7
:1008F0008989823028F0C701B8010E94EE0601C044
:1009000081E06896E6E00C945A28ACE0B0E0EBE8B1
:10091000F4E00C94422869837A838B839C83CE0114
:100920000196BE016B5F7F4F0E9476068D818230FB
:1009300061F1823050F1843021F48E81882351F1AD
:100940002EC02F81388537FD20C06E812F313105B3
:100950001CF06623F9F023C08EE190E0821B930B1C
:1009600029853A854B855C8504C056954795379512
:1009700027958A95D2F76623B1F05095409530952A
:1009800021953F4F4F4F5F4F0EC020E030E040E0D9
:1009900050E009C02FEF3FEF4FEF5FE704C020E0CA
:1009A00030E040E050E8B901CA012C96E2E00C9436
:1009B0005E28A8E0B0E0EFEDF4E00C943A287B016B
:1009C0008C01611571058105910519F482E0898317
:1009D00060C083E089838EE1C82ED12CDC82CB827B
:1009E000ED82FE820F831887C801B7010E9452056D
:1009F000FC013197F7FF3BC0222733272E1B3F0B0B
:100A000057016801022E04C0D694C794B794A794E6
:100A10000A94D2F740E050E060E070E081E090E0BE
:100A2000A0E0B0E004C0880F991FAA1FBB1F2A9541
:100A3000D2F70197A109B1098E219F21A023B123EB
:100A40000097A105B10521F041E050E060E070E0C1
:100A50004A295B296C297D294D835E836F837887C2
:100A60008EE190E08E1B9F0B9C838B8312C030978E
:100A700081F00E2E04C0EE0CFF1C001F111F0A9403
:100A8000D2F7ED82FE820F831887CE1ADF0ADC824E
:100A9000CB821A82CE0101960E94A1052896EAE037
:100AA0000C945628EF92FF920F931F937B018C01B9
:100AB00080E0E81680E0F80681E0080780E018078B
:100AC00088F48FEFE816F1040105110531F028F0E4
:100AD00088E090E0A0E0B0E017C080E090E0A0E007
:100AE000B0E012C080E0E81680E0F80680E0080779
:100AF00081E0180728F088E190E0A0E0B0E004C0B1
:100B000080E190E0A0E0B0E020E230E040E050E0A2
:100B1000281B390B4A0B5B0B04C016950795F794FD
:100B2000E7948A95D2F7F701E858FE4F8081281B99
:100B3000310941095109C9011F910F91FF90EF90AF
:100B40000895DF92EF92FF920F931F93FC01E480D0
:100B5000F58006811781D1808081823048F480E061
:100B600090E0A0E1B0E0E82AF92A0A2B1B2BA5C0EF
:100B7000843009F49FC0823021F4EE24FF248701E1
:100B800005C0E114F1040105110519F4E0E0F0E0FD
:100B900096C0628173819FEF623879070CF05BC069
:100BA00022E83FEF261B370B2A3131052CF020E0DD
:100BB00030E040E050E02AC0B801A701022E04C096
:100BC00076956795579547950A94D2F781E090E01E
:100BD000A0E0B0E004C0880F991FAA1FBB1F2A9590
:100BE000D2F70197A109B1098E219F21A023B1233A
:100BF0000097A105B10521F081E090E0A0E0B0E010
:100C00009A01AB01282B392B4A2B5B2BDA01C90146
:100C10008F779070A070B07080349105A105B105F8
:100C200039F427FF09C0205C3F4F4F4F5F4F04C08E
:100C3000215C3F4F4F4F5F4FE0E0F0E02030A0E0FD
:100C40003A07A0E04A07A0E45A0710F0E1E0F0E01C
:100C500079018A0127C06038710564F5FB01E1580C
:100C6000FF4FD801C7018F779070A070B0708034AB
:100C70009105A105B10539F4E7FE0DC080E490E0CF
:100C8000A0E0B0E004C08FE390E0A0E0B0E0E80EA8
:100C9000F91E0A1F1B1F17FF05C016950795F7942D
:100CA000E794319687E016950795F794E7948A952F
:100CB000D1F705C0EE24FF248701EFEFF0E06E2F9F
:100CC000679566276795902F9F77D794DD24D794F3
:100CD0008E2F8695492F462B582F5D29B701CA01C3
:100CE0001F910F91FF90EF90DF900895FC01DB01C1
:100CF000408151812281622F6F7770E0221F22276D
:100D0000221F9381892F880F822B282F30E0991F73
:100D10009927991F11969C93119721153105A9F5D3
:100D2000411551056105710511F482E037C082E873
:100D30009FEF13969C938E9312979A01AB0167E0F5
:100D4000220F331F441F551F6A95D1F783E08C9300
:100D50000DC0220F331F441F551F12968D919C9179
:100D60001397019713969C938E931297203080E0EF
:100D7000380780E0480780E4580758F314962D930D
:100D80003D934D935C93179708952F3F310579F468
:100D9000411551056105710519F484E08C9308959E
:100DA00064FF03C081E08C9312C01C9210C02F57C7
:100DB000304013963C932E93129783E08C9387E0F8
:100DC000440F551F661F771F8A95D1F770641496DC
:100DD0004D935D936D937C93179708951F93DC015A
:100DE000FB019C91923008F447C08081823008F466
:100DF00043C0943051F411961C91843099F581814F
:100E0000682F70E0611B71093FC0843021F092307F
:100E100031F48230B9F18181882389F12DC0119696
:100E20001C9111978230F1F081811817D9F4129634
:100E30002D913C911397828193818217930794F0AF
:100E400028173907BCF014968D919D910D90BC9197
:100E5000A02D2481358146815781281739074A07FB
:100E60005B0718F4112341F00AC082179307A40707
:100E7000B50740F4112319F061E070E005C06FEF91
:100E80007FEF02C060E070E0CB011F910895DF9317
:100E9000CF9300D00F92CDB7DEB789838981282FF9
:100EA00030E03B832A838A819B8181309105C1F0A8
:100EB0002A813B812230310511F18A819B81009783
:100EC00061F5A7E2B0E0E7E2F0E080818F778C93F4
:100ED000A7E2B0E0E7E2F0E0808180648C931DC07F
:100EE000A7E2B0E0E7E2F0E080818F778C93A7E2A1
:100EF000B0E0E7E2F0E080818F7B8C930EC0A7E248
:100F0000B0E0E7E2F0E0808180688C93A7E2B0E097
:100F1000E7E2F0E0808180648C93A7E2B0E0E7E252
:100F2000F0E080818F7D8C93A6E2B0E0E6E2F0E015
:100F300080818F7D8C93A6E2B0E0E6E2F0E08081D4
:100F4000877F8C93A6E2B0E0E6E2F0E080818160EA
:100F50008C93A6E2B0E0E6E2F0E0808182608C93C0
:100F6000A6E2B0E0E6E2F0E0808184608C93A6E245
:100F7000B0E0E6E2F0E0808180688C930F900F9003
:100F80000F90CF91DF910895DF93CF9300D000D0E1
:100F9000CDB7DEB789837B836A838A819B81009783
:100FA00059F18981803240F5A7E2B0E0E7E2F0E054
:100FB0008081807E8C93A7E2B0E0E7E2F0E0908150
:100FC0008981892B8C93A6E2B0E0E6E2F0E0808193
:100FD00080648C93E6E2F0E08081A6E2B0E0E6E295
:100FE000F0E0808180618C93E4E2F0E08081918187
:100FF000EA81FB81918380830F900F900F900F9077
:10100000CF91DF910895DF93CF9300D00F92CDB7AA
:10101000DEB789838981282F30E03B832A838A8148
:101020009B81009731F02A813B812130310589F085
:101030001FC080E060E041E00E948E0980E061E036
:1010400041E00E948E0981E061E041E00E948E094A
:101050000FC080E063E041E00E948E0980E064E020
:1010600041E00E948E0980E060E041E00E948E092C
:101070000F900F900F90CF91DF910895DF93CF9352
:10108000CDB7DEB728970FB6F894DEBF0FBECDBF41
:1010900089836A838981282F30E038872F838F8165
:1010A0009885009731F02F8138852130310531F155
:1010B00049C08A81282F30E03E832D838D819E8117
:1010C000009731F02D813E812130310561F03AC029
:1010D00080E060E041E00E94AD0A80E061E040E035
:1010E0000E94AD0A2FC080E060E040E00E94AD0A9F
:1010F00080E061E041E00E94AD0A24C08A81282F8F
:1011000030E03C832B838B819C81009731F02B81D5
:101110003C812130310561F015C080E063E041E0A1
:101120000E94AD0A80E064E040E00E94AD0A0AC07F
:1011300080E063E040E00E94AD0A80E064E041E0CE
:101140000E94AD0A28960FB6F894DEBF0FBECDBF41
:10115000CF91DF910895DF93CF9300D00F92CDB759
:10116000DEB789838981282F30E03B832A838A81F7
:101170009B81009731F02A813B812130310539F084
:101180000BC081E061E040E00E94AD0A05C080E054
:1011900060E040E00E94AD0A0F900F900F90CF9159
:1011A000DF910895DF93CF9300D00F92CDB7DEB7D4
:1011B00089838981282F30E03B832A838A819B8120
:1011C000009731F02A813B812130310589F01FC021
:1011D00080E060E041E00E948E0980E061E041E053
:1011E0000E948E0981E061E041E00E948E090FC0FB
:1011F00080E063E041E00E948E0980E064E041E02D
:101200000E948E0980E060E041E00E948E0981E04A
:1012100063E041E00E948E090E94401B0F900F90F6
:101220000F90CF91DF910895DF93CF93CDB7DEB7C5
:1012300029970FB6F894DEBF0FBECDBF89836A83AE
:101240004B838B810E94631B8981282F30E0398773
:10125000288788859985009731F028853985213040
:10126000310531F149C08A81282F30E03F832E8338
:101270008E819F81009731F02E813F812130310591
:1012800061F03AC080E060E041E00E94AD0A80E099
:1012900061E040E00E94AD0A2FC080E060E040E0E5
:1012A0000E94AD0A80E061E041E00E94AD0A24C0E6
:1012B0008A81282F30E03D832C838C819D8100978B
:1012C00031F02C813D812130310561F015C080E085
:1012D00063E041E00E94AD0A80E064E040E00E94EB
:1012E000AD0A0AC080E063E040E00E94AD0A80E001
:1012F00064E041E00E94AD0A29960FB6F894DEBF83
:101300000FBECDBFCF91DF910895DF93CF93CDB7BF
:10131000DEB70E94B01BCF91DF910895DF93CF938A
:10132000CDB7DEB72D970FB6F894DEBF0FBECDBF99
:1013300089836A834B838981843008F005C18A815F
:10134000883008F001C18981282F30E03D872C8743
:101350008C859D858130910509F44FC02C853D8594
:10136000223031052CF48C859D85009771F0ECC0FE
:101370002C853D852230310509F477C08C859D850B
:101380008330910509F4A9C0DFC08B81282F30E09C
:101390003B872A878A859B85009731F02A853B8584
:1013A00021303105B1F0D0C0AAE3B0E0EAE3F0E0CB
:1013B0008081482F8A81282F30E081E090E0022E42
:1013C00002C0880F991F0A94E2F7809584238C93BA
:1013D000BBC0AAE3B0E0EAE3F0E08081482F8A8155
:1013E000282F30E081E090E0022E02C0880F991F84
:1013F0000A94E2F7842B8C93A7C08B81282F30E0CE
:101400003987288788859985009731F0288539851F
:1014100021303105B1F098C0A7E3B0E0E7E3F0E098
:101420008081482F8A81282F30E081E090E0022ED1
:1014300002C0880F991F0A94E2F7809584238C9349
:1014400083C0A7E3B0E0E7E3F0E08081482F8A8122
:10145000282F30E081E090E0022E02C0880F991F13
:101460000A94E2F7842B8C936FC08B81282F30E095
:101470003F832E838E819F81009731F02E813F81A3
:1014800021303105B1F060C0A4E3B0E0E4E3F0E066
:101490008081482F8A81282F30E081E090E0022E61
:1014A00002C0880F991F0A94E2F7809584238C93D9
:1014B0004BC0A4E3B0E0E4E3F0E08081482F8A81F0
:1014C000282F30E081E090E0022E02C0880F991FA3
:1014D0000A94E2F7842B8C9337C08B81282F30E05D
:1014E0003D832C838C819D81009731F02C813D813F
:1014F00021303105B1F028C0A1E3B0E0E1E3F0E034
:101500008081482F8A81282F30E081E090E0022EF0
:1015100002C0880F991F0A94E2F7809584238C9368
:1015200013C0A1E3B0E0E1E3F0E08081482F8A81BD
:10153000282F30E081E090E0022E02C0880F991F32
:101540000A94E2F7842B8C932D960FB6F894DEBFA5
:101550000FBECDBFCF91DF910895DF93CF93CDB76D
:10156000DEB72D970FB6F894DEBF0FBECDBF8983CF
:101570006A834B838981843008F005C18A81883071
:1015800008F001C18981282F30E03D872C878C85A8
:101590009D858130910509F44FC02C853D85223011
:1015A00031052CF48C859D85009771F0ECC02C855D
:1015B0003D852230310509F477C08C859D858330C7
:1015C000910509F4A9C0DFC08B81282F30E03B874B
:1015D0002A878A859B85009731F02A853B852130B3
:1015E0003105B1F0D0C0ABE3B0E0EBE3F0E08081D7
:1015F000482F8A81282F30E081E090E0022E02C03F
:10160000880F991F0A94E2F7809584238C93BBC0BE
:10161000ABE3B0E0EBE3F0E08081482F8A81282F34
:1016200030E081E090E0022E02C0880F991F0A94FA
:10163000E2F7842B8C93A7C08B81282F30E0398769
:10164000288788859985009731F02885398521304C
:101650003105B1F098C0A8E3B0E0E8E3F0E08081A4
:10166000482F8A81282F30E081E090E0022E02C0CE
:10167000880F991F0A94E2F7809584238C9383C086
:10168000A8E3B0E0E8E3F0E08081482F8A81282FCA
:1016900030E081E090E0022E02C0880F991F0A948A
:1016A000E2F7842B8C936FC08B81282F30E03F832F
:1016B0002E838E819F81009731F02E813F812130D2
:1016C0003105B1F060C0A5E3B0E0E5E3F0E0808172
:1016D000482F8A81282F30E081E090E0022E02C05E
:1016E000880F991F0A94E2F7809584238C934BC04E
:1016F000A5E3B0E0E5E3F0E08081482F8A81282F60
:1017000030E081E090E0022E02C0880F991F0A9419
:10171000E2F7842B8C9337C08B81282F30E03D83F8
:101720002C838C819D81009731F02C813D8121306B
:101730003105B1F028C0A2E3B0E0E2E3F0E080813F
:10174000482F8A81282F30E081E090E0022E02C0ED
:10175000880F991F0A94E2F7809584238C9313C015
:10176000A2E3B0E0E2E3F0E08081482F8A81282FF5
:1017700030E081E090E0022E02C0880F991F0A94A9
:10178000E2F7842B8C932D960FB6F894DEBF0FBE34
:10179000CDBFCF91DF910895DF93CF9300D000D0DC
:1017A00000D0CDB7DEB789836A835C834B838981A0
:1017B000843008F079C08A81883008F075C08B8148
:1017C0009C81009709F470C08981282F30E03E8306
:1017D0002D834D815E814130510559F18D819E816E
:1017E0008230910534F42D813E812115310569F057
:1017F0005BC04D815E814230510579F18D819E81C2
:101800008330910509F43DC04FC0E9E3F0E08081E9
:10181000282F30E08A81882F90E0A90102C05595D9
:1018200047958A95E2F7CA018170EB81FC8180833C
:101830003BC0E6E3F0E08081282F30E08A81882FEA
:1018400090E0A90102C0559547958A95E2F7CA0133
:101850008170EB81FC81808327C0E3E3F0E080812D
:10186000282F30E08A81882F90E0A90102C0559589
:1018700047958A95E2F7CA018170EB81FC818083EC
:1018800013C0E0E3F0E08081282F30E08A81882FC8
:1018900090E0A90102C0559547958A95E2F7CA01E3
:1018A0008170EB81FC81808326960FB6F894DEBFB1
:1018B0000FBECDBFCF91DF910895DF93CF9300D0BE
:1018C00000D0CDB7DEB789836A838981843008F080
:1018D00072C08A81883008F06EC08981282F30E07C
:1018E0003C832B838B819C818130910549F12B8135
:1018F0003C81223031052CF48B819C81009761F072
:101900005AC02B813C812230310571F18B819C8141
:1019100083309105E9F14FC0ABE3B0E0EBE3F0E0D9
:101920008081482F8A81282F30E081E090E0022ECC
:1019300002C0880F991F0A94E2F784278C933BC05A
:10194000A8E3B0E0E8E3F0E08081482F8A81282F07
:1019500030E081E090E0022E02C0880F991F0A94C7
:10196000E2F784278C9327C0A5E3B0E0E5E3F0E03D
:101970008081482F8A81282F30E081E090E0022E7C
:1019800002C0880F991F0A94E2F784278C9313C032
:10199000A2E3B0E0E2E3F0E08081482F8A81282FC3
:1019A00030E081E090E0022E02C0880F991F0A9477
:1019B000E2F784278C930F900F900F900F90CF91A8
:1019C000DF910895DF93CF9300D000D0CDB7DEB77D
:1019D00089836A838981843090F58981282F30E05A
:1019E0003C832B838B819C8181309105D1F02B81AD
:1019F0003C81223031052CF48B819C81009761F071
:101A00001EC02B813C812230310581F08B819C816D
:101A10008330910581F013C0EAE3F0E08A8180838E
:101A20000EC0E7E3F0E08A81808309C0E4E3F0E0E0
:101A30008A81808304C0E1E3F0E08A8180830F9093
:101A40000F900F900F90CF91DF910895DF93CF9378
:101A500000D000D0CDB7DEB789836A838981843016
:101A600090F58981282F30E03C832B838B819C81EA
:101A700081309105D1F02B813C81223031052CF44D
:101A80008B819C81009761F01EC02B813C812230AC
:101A9000310581F08B819C818330910581F013C0E9
:101AA000EBE3F0E08A8180830EC0E8E3F0E08A8116
:101AB000808309C0E5E3F0E08A81808304C0E2E32B
:101AC000F0E08A8180830F900F900F900F90CF915C
:101AD000DF910895DF93CF9300D000D00F92CDB760
:101AE000DEB789837B836A8389818430D0F58981DD
:101AF000282F30E03D832C838C819D81813091059E
:101B0000E1F02C813D81223031052CF48C819D81C6
:101B1000009761F026C02C813D8122303105A1F073
:101B20008C819D8183309105B1F01BC0E9E3F0E029
:101B30008081EA81FB81808314C0E6E3F0E080814C
:101B4000EA81FB8180830DC0E3E3F0E08081EA81DC
:101B5000FB81808306C0E0E3F0E08081EA81FB81C5
:101B600080830F900F900F900F900F90CF91DF9187
:101B70000895DF93CF9300D00F92CDB7DEB789835E
:101B80008981843008F03EC08981282F30E03B8372
:101B90002A838A819B8181309105E9F02A813B81EA
:101BA000223031052CF48A819B81009761F02AC094
:101BB0002A813B8122303105B1F08A819B818330BB
:101BC0009105C9F01FC0ABE3B0E0EBE3F0E080812A
:101BD00080958C9317C0A8E3B0E0E8E3F0E0808143
:101BE00080958C930FC0A5E3B0E0E5E3F0E0808141
:101BF00080958C9307C0A2E3B0E0E2E3F0E080813F
:101C000080958C930F900F900F90CF91DF91089556
:101C1000DF93CF9300D000D0CDB7DEB789836A833E
:101C20008981843008F072C08A81883008F06EC0E3
:101C30008981282F30E03C832B838B819C818130EC
:101C4000910549F12B813C81223031052CF48B81A7
:101C50009C81009761F05AC02B813C812230310574
:101C600071F18B819C8183309105E9F14FC0ABE329
:101C7000B0E0EBE3F0E08081482F8A81282F30E04C
:101C800081E090E0022E02C0880F991F0A94E2F7CB
:101C9000842B8C933BC0A8E3B0E0E8E3F0E08081C4
:101CA000482F8A81282F30E081E090E0022E02C088
:101CB000880F991F0A94E2F7842B8C9327C0A5E321
:101CC000B0E0E5E3F0E08081482F8A81282F30E002
:101CD00081E090E0022E02C0880F991F0A94E2F77B
:101CE000842B8C9313C0A2E3B0E0E2E3F0E08081A8
:101CF000482F8A81282F30E081E090E0022E02C038
:101D0000880F991F0A94E2F7842B8C930F900F9001
:101D10000F900F90CF91DF910895DF93CF9300D074
:101D20000F92CDB7DEB789838981843090F58981A0
:101D3000282F30E03B832A838A819B818130910563
:101D4000D1F02A813B81223031052CF48A819B819C
:101D5000009761F01EC02A813B812230310581F05D
:101D60008A819B818330910581F013C0EBE3F0E021
:101D70008FEF80830EC0E8E3F0E08FEF808309C02F
:101D8000E5E3F0E08FEF808304C0E2E3F0E08FEF63
:101D900080830F900F900F90CF91DF910895DF9384
:101DA000CF93CDB7DEB70E948D1ECF91DF910895FE
:101DB000DF93CF93CDB7DEB762970FB6F894DEBF4F
:101DC0000FBECDBF998B888B6A8B88899989892FA3
:101DD000992780658F870E94B41E8F850E940A1FF5
:101DE00088890E94761F8A890E94761F0E94F51EAC
:101DF00080E090E0A0EAB0E48B879C87AD87BE8747
:101E00006B857C858D859E8520E030E04AE755E432
:101E10000E941F02DC01CB018F839887A987BA87B4
:101E20006F81788589859A8520E030E040E85FE31E
:101E30000E94250488232CF481E090E09E838D830A
:101E40003FC06F81788589859A8520E03FEF4FE715
:101E500057E40E94C50318164CF56B857C858D856B
:101E60009E8520E030E040E251E40E941F02DC0148
:101E7000CB01BC01CD010E944900DC01CB019E8356
:101E80008D830FC080E991E09C838B838B819C8143
:101E90000197F1F79C838B838D819E8101979E83AF
:101EA0008D838D819E81009769F714C06F8178853D
:101EB00089859A850E944900DC01CB019E838D8330
:101EC0008D819E819A83898389819A810197F1F717
:101ED0009A83898362960FB6F894DEBF0FBECDBF9A
:101EE000CF91DF910895DF93CF93CDB7DEB763979E
:101EF0000FB6F894DEBF0FBECDBF998B888B7B8B5E
:101F00006A8B8A899B89009709F48BC08889998993
:101F1000892F992780658F870E94B41E8F850E9424
:101F20000A1F88890E94761F0E94D11E8F850E94F9
:101F3000401F8A899B890E94D41F0E94F51E80E061
:101F400090E0A0EAB0E48B879C87AD87BE876B8565
:101F50007C858D859E8520E030E04AE755E40E942F
:101F60001F02DC01CB018F839887A987BA876F8115
:101F7000788589859A8520E030E040E85FE30E941B
:101F8000250488232CF481E090E09E838D833FC05C
:101F90006F81788589859A8520E03FEF4FE757E488
:101FA0000E94C50318164CF56B857C858D859E8532
:101FB00020E030E040E251E40E941F02DC01CB014E
:101FC000BC01CD010E944900DC01CB019E838D83C1
:101FD0000FC080E991E09C838B838B819C8101976A
:101FE000F1F79C838B838D819E8101979E838D83E6
:101FF0008D819E81009769F714C06F8178858985EE
:102000009A850E944900DC01CB019E838D838D81DE
:102010009E819A83898389819A810197F1F79A83B6
:10202000898363960FB6F894DEBF0FBECDBFCF9104
:10203000DF910895DF93CF93CDB7DEB765970FB6E5
:10204000F894DEBF0FBECDBF9A8B898B6B8B5D8BF7
:102050004C8B8C899D89009709F49AC08B898131BA
:1020600008F096C089899A89892F992780658F877A
:102070000E94B41E8F850E940A1F89890E94761FC4
:10208000188A0EC08889282F30E08C899D89FC0130
:10209000E20FF31F80810E94761F88898F5F888BF3
:1020A00098898B89981770F30E94F51E80E090E064
:1020B000A0EAB0E48B879C87AD87BE876B857C8563
:1020C0008D859E8520E030E04AE755E40E941F029E
:1020D000DC01CB018F839887A987BA876F817885C8
:1020E00089859A8520E030E040E85FE30E9425047E
:1020F00088232CF481E090E09E838D833FC06F8124
:10210000788589859A8520E03FEF4FE757E40E9464
:10211000C50318164CF56B857C858D859E8520E062
:1021200030E040E251E40E941F02DC01CB01BC011F
:10213000CD010E944900DC01CB019E838D830FC03D
:1021400080E991E09C838B838B819C810197F1F7DF
:102150009C838B838D819E8101979E838D838D814E
:102160009E81009769F714C06F81788589859A856B
:102170000E944900DC01CB019E838D838D819E816D
:102180009A83898389819A810197F1F79A83898358
:1021900065960FB6F894DEBF0FBECDBFCF91DF912D
:1021A0000895DF93CF93CDB7DEB765970FB6F89458
:1021B000DEBF0FBECDBF9A8B898B6B8B5D8B4C8B3B
:1021C0008C899D89009709F4ACC08B89813108F016
:1021D000A8C089899A89892F992780658F870E944D
:1021E000B41E8F850E940A1F89890E94761F0E9453
:1021F000D11E8F850E94401F188A0CC08889282F05
:1022000030E08C899D89820F931F0E949A1F8889D4
:102210008F5F888B8889282F30E08B89882F90E00A
:1022200001972817390754F38889282F30E08C89C3
:102230009D89820F931F0E94D41F0E94F51E80E08B
:1022400090E0A0EAB0E48B879C87AD87BE876B8562
:102250007C858D859E8520E030E04AE755E40E942C
:102260001F02DC01CB018F839887A987BA876F8112
:10227000788589859A8520E030E040E85FE30E9418
:10228000250488232CF481E090E09E838D833FC059
:102290006F81788589859A8520E03FEF4FE757E485
:1022A0000E94C50318164CF56B857C858D859E852F
:1022B00020E030E040E251E40E941F02DC01CB014B
:1022C000BC01CD010E944900DC01CB019E838D83BE
:1022D0000FC080E991E09C838B838B819C81019767
:1022E000F1F79C838B838D819E8101979E838D83E3
:1022F0008D819E81009769F714C06F8178858985EB
:102300009A850E944900DC01CB019E838D838D81DB
:102310009E819A83898389819A810197F1F79A83B3
:10232000898365960FB6F894DEBF0FBECDBFCF91FF
:10233000DF910895DF93CF93CDB7DEB72A970FB61D
:10234000F894DEBF0FBECDBF89836A838981282FB1
:1023500030E03A87298789859A858130910509F48B
:1023600066C029853A852230310509F4BBC08985CC
:102370009A85009709F0D4C08A81282F30E03887E9
:102380002F838F8198858130910521F12F813885A8
:10239000223031052CF48F819885009761F0C0C000
:1023A0002F8138852230310521F18F819885833046
:1023B000910571F1B5C0A5E5B0E0E5E5F0E08081FB
:1023C00081608C93A5E5B0E0E5E5F0E08081826076
:1023D0008C93A6C0A5E5B0E0E5E5F0E080818E7FB6
:1023E0008C93A5E5B0E0E5E5F0E0808182608C9318
:1023F00097C0A5E5B0E0E5E5F0E080818E7F8C93A5
:10240000A5E5B0E0E5E5F0E080818D7F8C9388C0A4
:10241000A5E5B0E0E5E5F0E0808181608C93A5E57D
:10242000B0E0E5E5F0E080818D7F8C9379C08A8112
:10243000282F30E03E832D838D819E818130910550
:1024400021F12D813E81223031052CF48D819E8138
:10245000009761F065C02D813E812230310521F168
:102460008D819E818330910571F15AC0A5E5B0E060
:10247000E5E5F0E0808184608C93A5E5B0E0E5E5DA
:10248000F0E0808188608C934BC0A5E5B0E0E5E585
:10249000F0E080818B7F8C93A5E5B0E0E5E5F0E08E
:1024A000808188608C933CC0A5E5B0E0E5E5F0E074
:1024B00080818B7F8C93A5E5B0E0E5E5F0E080813D
:1024C000877F8C932DC0A5E5B0E0E5E5F0E0808145
:1024D00084608C93A5E5B0E0E5E5F0E08081877F3E
:1024E0008C931EC08A81282F30E03C832B838B8104
:1024F0009C81009731F02B813C812130310549F0DE
:102500000FC0A4E5B0E0E4E5F0E0808180648C9346
:1025100007C0A4E5B0E0E4E5F0E080818F7B8C9318
:102520002A960FB6F894DEBF0FBECDBFCF91DF91D4
:102530000895DF93CF9300D00F92CDB7DEB7898394
:102540008981282F30E03B832A838A819B818130D7
:10255000910589F02A813B8122303105A1F08A81E1
:102560009B810097B9F4ABE5B0E0EBE5F0E080814A
:1025700080648C930FC0ABE5B0E0EBE5F0E08081C8
:1025800080688C9307C0ABE5B0E0EBE5F0E08081BC
:1025900080628C930F900F900F90CF91DF910895F0
:1025A000DF93CF9300D00F92CDB7DEB789838981B7
:1025B000282F30E03B832A838A819B8181309105DB
:1025C00089F02A813B8122303105A1F08A819B81EB
:1025D0000097B9F4ABE5B0E0EBE5F0E080818F7BEC
:1025E0008C930FC0ABE5B0E0EBE5F0E080818F7736
:1025F0008C9307C0ABE5B0E0EBE5F0E080818F7D28
:102600008C930F900F900F90CF91DF910895DF93EF
:10261000CF9300D0CDB7DEB79A83898389819A8121
:10262000009731F089819A81909389028093880282
:102630000F900F90CF91DF910895DF93CF9300D04B
:10264000CDB7DEB79A83898389819A81009731F06B
:1026500089819A8190938B0280938A020F900F90C8
:10266000CF91DF910895DF93CF9300D0CDB7DEB740
:102670009A83898389819A81009731F089819A812F
:1026800090938D0280938C020F900F90CF91DF91E9
:1026900008951F920F920FB60F9211242F933F931C
:1026A0004F935F936F937F938F939F93AF93BF935A
:1026B000EF93FF93DF93CF93CDB7DEB7809188027E
:1026C00090918902009729F0E0918802F0918902A7
:1026D0000995CF91DF91FF91EF91BF91AF919F91BC
:1026E0008F917F916F915F914F913F912F910F90BB
:1026F0000FBE0F901F9018951F920F920FB60F925A
:1027000011242F933F934F935F936F937F938F93F6
:102710009F93AF93BF93EF93FF93DF93CF93CDB787
:10272000DEB780918A0290918B02009729F0E091A8
:102730008A02F0918B020995CF91DF91FF91EF9181
:10274000BF91AF919F918F917F916F915F914F91C9
:102750003F912F910F900FBE0F901F9018951F92D1
:102760000F920FB60F9211242F933F934F935F93C5
:102770006F937F938F939F93AF93BF93EF93FF9349
:10278000DF93CF93CDB7DEB780918C0290918D020D
:10279000009729F0E0918C02F0918D020995CF917C
:1027A000DF91FF91EF91BF91AF919F918F917F91B9
:1027B0006F915F914F913F912F910F900FBE0F90AE
:1027C0001F901895DF93CF93CDB7DEB7AFE5B0E09C
:1027D000EFE5F0E0808180688C93CF91DF910895E0
:1027E000DF93CF93CDB7DEB7AFE5B0E0EFE5F0E034
:1027F00080818F778C93CF91DF910895DF93CF9372
:10280000CDB7DEB782E063E040E00E948E0982E04F
:1028100064E040E00E948E0982E065E040E00E94B2
:102820008E0982E066E040E00E948E0982E063E06B
:102830000E94080E82E064E00E94080E82E065E0DB
:102840000E94080E82E066E00E94080E81E064E0CB
:1028500041E00E948E0981E065E041E00E948E091E
:1028600081E066E041E00E948E0981E067E041E09E
:102870000E948E0981E064E041E00E94AD0A81E09F
:1028800065E041E00E94AD0A81E066E041E00E941F
:10289000AD0A81E067E041E00E94AD0ACF91DF918F
:1028A0000895DF93CF93CDB7DEB7AA970FB6F8940C
:1028B000DEBF0FBECDBF9DA38CA38CA19DA10097B1
:1028C00009F4D9C0ECA1FDA18FEF808381E08C8356
:1028D00081E08D8381E08E8381E08F8384E088872F
:1028E00085E0898786E08A8787E08B8782E08C870E
:1028F00082E08D8782E08E8782E08F8783E0888BFD
:1029000084E0898B85E08A8B86E08B8BCE014496B0
:102910009FA38EA3E8E7F2E0F9A7E8A7F0E1FAA702
:10292000E8A5F9A5008088A599A5019699A788A78B
:10293000EEA1FFA100828EA19FA101969FA38EA36D
:102940009AA591509AA7EAA5EE2351F71A828FC053
:102950008A81282F30E0CE010496FC01E20FF31F9C
:1029600040818A81282F30E0CE010896FC01E20FD9
:10297000F31F9081842F692F40E00E94AD0A1982D5
:1029800055C08981282F30E0CE010C96FC01E20F62
:10299000F31F40818981282F30E0CE014096FC0151
:1029A000E20FF31F90819E012D5F3F4F842F692F0F
:1029B000A9010E94CC0B8B818823A9F51AC08981BB
:1029C000282F30E0CE010C96FC01E20FF31F40816E
:1029D0008981282F30E0CE014096FC01E20FF31FE1
:1029E00090819E012D5F3F4F842F692FA9010E9486
:1029F000CC0B8B81882319F38981282F30E08A81C1
:102A0000482F50E0220F331F220F331FCE010196B3
:102A1000820F931F840F951FFC0173968081ECA198
:102A2000FDA1808307C089818F5F8983898184307C
:102A300008F4A7CF89818430F0F08A81282F30E014
:102A4000CE010496FC01E20FF31F40818A81282FFA
:102A500030E0CE010896FC01E20FF31F9081842F35
:102A6000692F41E00E94AD0A8A818F5F8A838A8143
:102A7000843008F46DCFAA960FB6F894DEBF0FBE6F
:102A8000CDBFCF91DF910895DF93CF93CDB7DEB760
:102A9000E8970FB6F894DEBF0FBECDBF80E064E0CC
:102AA00041E00E948E0980E065E041E00E948E09CD
:102AB00080E066E041E00E948E0980E067E041E04E
:102AC0000E948E0980E062E041E00E948E0981E070
:102AD00062E041E00E948E0981E061E041E00E94F5
:102AE0008E0980E090E0A0E2B2E48DAB9EABAFAB8C
:102AF000B8AF6DA97EA98FA998AD20E030E04AE774
:102B000055E40E941F02DC01CB0189AB9AABABAB51
:102B1000BCAB69A97AA98BA99CA920E030E040E868
:102B20005FE30E94250488232CF481E090E098ABB9
:102B30008FA73FC069A97AA98BA99CA920E03FEF84
:102B40004FE757E40E94C50318164CF56DA97EA9FE
:102B50008FA998AD20E030E040E251E40E941F02CE
:102B6000DC01CB01BC01CD010E944900DC01CB019D
:102B700098AB8FA70FC080E991E09EA78DA78DA588
:102B80009EA50197F1F79EA78DA78FA598A90197FC
:102B900098AB8FA78FA598A9009769F714C069A96A
:102BA0007AA98BA99CA90E944900DC01CB0198ABB2
:102BB0008FA78FA598A99CA78BA78BA59CA50197EC
:102BC000F1F79CA78BA781E062E040E00E94AD0A8C
:102BD00081E061E040E00E94AD0A82E00E94EC17D3
:102BE0000E945D1788E20E943C1880E090E0A4E318
:102BF000B2E48FA398A7A9A7BAA76FA178A589A5C2
:102C00009AA520E030E04AE755E40E941F02DC016B
:102C1000CB018BA39CA3ADA3BEA36BA17CA18DA173
:102C20009EA120E030E040E85FE30E942504882375
:102C30002CF481E090E09AA389A33FC06BA17CA112
:102C40008DA19EA120E03FEF4FE757E40E94C5030E
:102C500018164CF56FA178A589A59AA520E030E05B
:102C600040E251E40E941F02DC01CB01BC01CD0116
:102C70000E944900DC01CB019AA389A30FC080E91F
:102C800091E098A38F8F8F8D98A10197F1F798A36A
:102C90008F8F89A19AA101979AA389A389A19AA14B
:102CA000009769F714C06BA17CA18DA19EA10E9421
:102CB0004900DC01CB019AA389A389A19AA19E8F27
:102CC0008D8F8D8D9E8D0197F1F79E8F8D8F8FE06B
:102CD0000E943C1880E090E0A4E3B2E4898F9A8FD0
:102CE000AB8FBC8F698D7A8D8B8D9C8D20E030E011
:102CF0004AE755E40E941F02DC01CB018D8B9E8BBD
:102D0000AF8BB88F6D897E898F89988D20E030E0F8
:102D100040E85FE30E94250488232CF481E090E0E2
:102D20009C8B8B8B3FC06D897E898F89988D20E02D
:102D30003FEF4FE757E40E94C50318164CF5698D25
:102D40007A8D8B8D9C8D20E030E040E251E40E9432
:102D50001F02DC01CB01BC01CD010E944900DC0156
:102D6000CB019C8B8B8B0FC080E991E09A8B898B78
:102D700089899A890197F1F79A8B898B8B899C892C
:102D800001979C8B8B8B8B899C89009769F714C06A
:102D90006D897E898F89988D0E944900DC01CB0165
:102DA0009C8B8B8B8B899C89988B8F878F8598893F
:102DB0000197F1F7988B8F8781E00E943C1880E0A3
:102DC00090E0A0E0B0E48B879C87AD87BE876B85E1
:102DD0007C858D859E8520E030E04AE755E40E94A1
:102DE0001F02DC01CB018F839887A987BA876F8187
:102DF000788589859A8520E030E040E85FE30E948D
:102E0000250488232CF481E090E09E838D833FC0CD
:102E10006F81788589859A8520E03FEF4FE757E4F9
:102E20000E94C50318164CF56B857C858D859E85A3
:102E300020E030E040E251E40E941F02DC01CB01BF
:102E4000BC01CD010E944900DC01CB019E838D8332
:102E50000FC080E991E09C838B838B819C810197DB
:102E6000F1F79C838B838D819E8101979E838D8357
:102E70008D819E81009769F714C06F81788589855F
:102E80009A850E944900DC01CB019E838D838D8150
:102E90009E819A83898389819A810197F1F79A8328
:102EA000898386E00E943C18E8960FB6F894DEBF4E
:102EB0000FBECDBFCF91DF910895DF93CF93CDB7F4
:102EC000DEB72E970FB6F894DEBF0FBECDBF80E001
:102ED00062E041E00E94AD0A80E090E0A0E8BFE33C
:102EE0008B879C87AD87BE876B857C858D859E850E
:102EF00020E030E04AE755E40E941F02DC01CB01EC
:102F00008F839887A987BA876F81788589859A8505
:102F100020E030E040E85FE30E94250488232CF4A1
:102F200081E090E09E838D833FC06F8178858985A5
:102F30009A8520E03FEF4FE757E40E94C50318163B
:102F40004CF56B857C858D859E8520E030E040E2E8
:102F500051E40E941F02DC01CB01BC01CD010E94A3
:102F60004900DC01CB019E838D830FC080E991E095
:102F70009C838B838B819C810197F1F79C838B834E
:102F80008D819E8101979E838D838D819E81009787
:102F900069F714C06F81788589859A850E944900F8
:102FA000DC01CB019E838D838D819E819A838983F1
:102FB00089819A810197F1F79A83898380E062E0A1
:102FC00040E00E94AD0A2E960FB6F894DEBF0FBE09
:102FD000CDBFCF91DF910895DF93CF930F92CDB7FF
:102FE000DEB789838981982F917080E064E0492F52
:102FF0000E94AD0A89818695982F917080E065E0E6
:10300000492F0E94AD0A898186958695982F9170E7
:1030100080E066E0492F0E94AD0A898186958695F9
:103020008695982F917080E067E0492F0E94AD0A45
:103030000F90CF91DF910895DF93CF930F92CDB78B
:10304000DEB7898381E062E040E00E94AD0A81E062
:1030500061E041E00E94AD0A898182958F700E94F3
:10306000EC170E945D1789810E94EC170E945D1782
:103070000F90CF91DF910895DF93CF930F92CDB74B
:10308000DEB7898381E062E040E00E94AD0A81E022
:1030900061E040E00E94AD0A898182958F700E94B4
:1030A000EC170E945D1789810E94EC170E945D1742
:1030B0000F90CF91DF910895DF93CF9300D00F92BF
:1030C000CDB7DEB79B838A838A819B810097D9F035
:1030D00019820EC08981282F30E08A819B81FC01F2
:1030E000E20FF31F80810E941C1889818F5F898302
:1030F0008981282F30E08A819B81FC01E20FF31F38
:103100008081882339F70F900F900F90CF91DF9136
:103110000895DF93CF93CDB7DEB72E970FB6F8940F
:10312000DEBF0FBECDBF81E00E943C1880E090E082
:10313000A0E0B0E48B879C87AD87BE876B857C85DC
:103140008D859E8520E030E04AE755E40E941F020D
:10315000DC01CB018F839887A987BA876F81788537
:1031600089859A8520E030E040E85FE30E942504ED
:1031700088232CF481E090E09E838D833FC06F8193
:10318000788589859A8520E03FEF4FE757E40E94D4
:10319000C50318164CF56B857C858D859E8520E0D2
:1031A00030E040E251E40E941F02DC01CB01BC018F
:1031B000CD010E944900DC01CB019E838D830FC0AD
:1031C00080E991E09C838B838B819C810197F1F74F
:1031D0009C838B838D819E8101979E838D838D81BE
:1031E0009E81009769F714C06F81788589859A85DB
:1031F0000E944900DC01CB019E838D838D819E81DD
:103200009A83898389819A810197F1F79A838983C7
:103210002E960FB6F894DEBF0FBECDBFCF91DF91D3
:103220000895DF93CF9300D00F92CDB7DEB7898397
:103230008981282F30E03B832A838A819B818130DA
:103240009105C9F02A813B81223031052CF48A8115
:103250009B81009761F01AC02A813B8122303105A1
:1032600071F08A819B818330910569F00FC080E104
:103270000E943C180BC084E10E943C1807C088E102
:103280000E943C1803C08CE10E943C180F900F90E4
:103290000F90CF91DF910895DF93CF9300D00F92DD
:1032A000CDB7DEB78A836B838A81882F90E00024B4
:1032B000969587950794969587950794982F802DD6
:1032C000982F8B81890F898389818068898389817F
:1032D0000E943C180F900F900F90CF91DF910895AE
:1032E000EF92FF920F931F93DF93CF93CDB7DEB78B
:1032F00028970FB6F894DEBF0FBECDBF6D837E83D7
:103300008F83988781E090E0A0E0B0E089839A8382
:10331000AB83BC838D819E81AF81B8850097A10569
:10332000B105D1F580E30E941C186AC089819A8199
:10333000AB81BC812AE030E040E050E0BC01CD012F
:103340000E94CA277B018C018D819E81AF81B88547
:103350002AE030E040E050E0BC01CD010E9410289E
:10336000DC01CB018E0D9F1DA01FB11F89839A83A5
:10337000AB83BC838D819E81AF81B8852AE030E02C
:1033800040E050E0BC01CD010E941028DA01C901E3
:103390008D839E83AF83B8878D819E81AF81B885F1
:1033A0000097A105B10511F689819A81AB81BC8195
:1033B0002AE030E040E050E0BC01CD010E9410283E
:1033C000DC01CB01805D0E941C1889819A81AB8150
:1033D000BC812AE030E040E050E0BC01CD010E9419
:1033E0001028DA01C90189839A83AB83BC83898160
:1033F0009A81AB81BC8181309105A105B105A1F60F
:1034000028960FB6F894DEBF0FBECDBFCF91DF91E7
:103410001F910F91FF90EF900895DF93CF9300D00D
:10342000CDB7DEB789836A8389816A8141E00E94D2
:103430008E090F900F90CF91DF910895DF93CF9376
:1034400000D000D00F92CDB7DEB789836A834B835B
:103450008B81282F30E03D832C838C819D810097C8
:1034600031F02C813D812130310539F00BC089814B
:103470006A8141E00E94AD0A05C089816A8140E00D
:103480000E94AD0A0F900F900F900F900F90CF9168
:10349000DF910895DF93CF9300D000D00F92CDB786
:1034A000DEB789836A834B838B81282F30E03D838D
:1034B0002C838C819D81009731F02C813D812130BE
:1034C000310539F00BC089816A8140E00E94AD0A64
:1034D00005C089816A8141E00E94AD0A0F900F907A
:1034E0000F900F900F90CF91DF910895DF93CF93BE
:1034F00000D0CDB7DEB789836A8389816A810E9453
:103500005D0C0F900F90CF91DF910895DF93CF93D3
:103510000F92CDB7DEB7898380E0698140E00E94D9
:103520008E0982E00E9447070F90CF91DF910895A6
:10353000DF93CF93CDB7DEB727970FB6F894DEBFF2
:103540000FBECDBF8D837F836E838E819F81009759
:1035500069F19E012D5F3F4F8D81B9010E94C40723
:103560008B819C81CC01A0E0B0E020E03AE040E01B
:1035700050E0BC01CD010E94CA27DC01CB01072E1F
:103580007AE0B695A795979587957A95D1F7702D9E
:103590009A83898389819A812AE030E0B9010E9467
:1035A000E927CB01EE81FF819183808327960FB6B7
:1035B000F894DEBF0FBECDBFCF91DF910895DF93AA
:1035C000CF93CDB7DEB783E065E041E00E948E097E
:1035D0000E94A51CCF91DF910895DF93CF93CDB7C3
:1035E000DEB728970FB6F894DEBF0FBECDBF6D8350
:1035F0007E838F8398876D817E818F81988520E07F
:1036000030E044EB52EC0E94F503882334F16D81E5
:103610007E818F81988520E030E044EB52E40E9467
:1036200055041816D4F06D817E818F81988520E035
:1036300030E040E152E40E941903DC01CB01BC01FF
:10364000CD0120E030E040EF50E40E94F201DC01C7
:10365000CB0189839A83AB83BC8329813A814B81D7
:103660005C8182E390E0BA01A9010E94D61C2896F1
:103670000FB6F894DEBF0FBECDBFCF91DF91089596
:10368000DF93CF93CDB7DEB7A3E5B0E0E3E5F0E09D
:10369000808180648C93A3E5B0E0E3E5F0E0808175
:1036A00088608C93A3E5B0E0E3E5F0E080818F7E55
:1036B0008C93A3E5B0E0E3E5F0E0808180628C9339
:1036C000CF91DF910895DF93CF930F92CDB7DEB7FF
:1036D00089838981853620F5ECE5F0E08981882FA2
:1036E00090E0982F882724E630E0B9010E94FD275A
:1036F000CB0181508083A3E5B0E0E3E5F0E0808179
:1037000081608C93A3E5B0E0E3E5F0E08081826026
:103710008C93A3E5B0E0E3E5F0E080818B7F8C93B0
:103720000F90CF91DF910895DF93CF93CDB7DEB7A0
:10373000A3E5B0E0E3E5F0E0808181608C93A3E550
:10374000B0E0E3E5F0E0808182608C93A3E5B0E037
:10375000E3E5F0E080818B7F8C93CF91DF9108953A
:10376000DF93CF93CDB7DEB7A3E5B0E0E3E5F0E0BC
:1037700080818E7F8C93A3E5B0E0E3E5F0E080816B
:103780008D7F8C93A3E5B0E0E3E5F0E080818B7F53
:103790008C93CF91DF910895DF93CF9300D0CDB775
:1037A000DEB79A838983ECE5F0E089EF8083898135
:1037B0009A8190939702809396020F900F90CF91E9
:1037C000DF910895DF93CF9300D0CDB7DEB79A8312
:1037D000898389819A81009731F089819A819093B8
:1037E0008F0280938E020F900F90CF91DF910895FA
:1037F000DF93CF9300D0CDB7DEB79A8389838981D9
:103800009A81009731F089819A81909391028093F7
:1038100090020F900F90CF91DF9108951F920F9219
:103820000FB60F9211242F933F934F935F936F9393
:103830007F938F939F93AF93BF93EF93FF93DF9308
:10384000CF93CDB7DEB7809192029091930201960B
:1038500090939302809392028091920290919302AE
:1038600023E0813D920799F4E2E5F0E081E780836F
:10387000109293021092920280918E0290918F0288
:10388000009729F0E0918E02F0918F020995CF9177
:10389000DF91FF91EF91BF91AF919F918F917F91B8
:1038A0006F915F914F913F912F910F900FBE0F90AD
:1038B0001F9018951F920F920FB60F9211242F93FD
:1038C0003F934F935F936F937F938F939F93AF93A8
:1038D000BF93EF93FF93DF93CF93CDB7DEB7809184
:1038E0009402909195020196909395028093940290
:1038F00020919602309197028091940290919502C6
:103900002817390779F41092950210929402809149
:10391000900290919102009729F0E0919002F0912D
:1039200091020995CF91DF91FF91EF91BF91AF91F6
:103930009F918F917F916F915F914F913F912F91C7
:103940000F900FBE0F901F901895DF93CF93CDB7B8
:10395000DEB7AFE4B0E0EFE4F0E080818E7F8C93DF
:10396000AFE4B0E0EFE4F0E0808182608C93AEE4FD
:10397000B0E0EEE4F0E0808188608C93AEE4B0E0EB
:10398000EEE4F0E0808180618C93AFE4B0E0EFE49E
:10399000F0E080818F7B8C93AFE4B0E0EFE4F0E067
:1039A000808180688C93CF91DF9108950F931F934E
:1039B000DF93CF9300D000D000D0CDB7DEB79A838D
:1039C00089834B835C836D837E836B817C818D8156
:1039D0009E8120E030E048EC52E40E945504181625
:1039E0000CF461C006E410E089819A819C0140E0FA
:1039F00050E080E990EDA3E0B0E0BC01CD010E9471
:103A00001028DA01C9010197F801918380830AE443
:103A100010E0E6E4F0E0808191810196CC01A0E025
:103A2000B0E0BC01CD010E94D904DC01CB01BC0196
:103A3000CD012B813C814D815E810E941F02DC0102
:103A4000CB01BC01CD0120E030E048EC52E40E9403
:103A50001903DC01CB01BC01CD0120E030E040E8DE
:103A60005FE30E94C101DC01CB01BC01CD010E94DA
:103A70004900DC01CB01F80191838083AEE4B0E022
:103A8000EEE4F0E0808181608C93AEE4B0E0EEE49F
:103A9000F0E0808182608C93AEE4B0E0EEE4F0E090
:103AA00080818B7F8C9326960FB6F894DEBF0FBE75
:103AB000CDBFCF91DF911F910F910895DF93CF93E9
:103AC000CDB7DEB7AEE4B0E0EEE4F0E08081816037
:103AD0008C93AEE4B0E0EEE4F0E0808182608C9301
:103AE000AEE4B0E0EEE4F0E080818B7F8C93CF9188
:103AF000DF910895DF93CF93CDB7DEB7AEE4B0E0AA
:103B0000EEE4F0E080818E7F8C93AEE4B0E0EEE4F2
:103B1000F0E080818D7F8C93AEE4B0E0EEE4F0E0E5
:103B200080818B7F8C93CF91DF910895DF93CF932A
:103B300000D000D0CDB7DEB769837A838B839C83B6
:103B4000EAE4F0E083E294EF9183808389819A81B3
:103B5000AB81BC8128EE33E040E050E0BC01CD01F8
:103B60000E94CA27DC01CB0120E930ED43E050E0A0
:103B7000BC01CD010E941028DA01C9019093A10275
:103B80008093A0020F900F900F900F90CF91DF9134
:103B90000895DF93CF9300D0CDB7DEB79A838983A2
:103BA00089819A81009731F089819A819093990255
:103BB000809398020F900F90CF91DF910895DF933B
:103BC000CF9300D0CDB7DEB79A83898389819A815C
:103BD000009731F089819A8190939B0280939A0299
:103BE0000F900F90CF91DF9108951F920F920FB613
:103BF0000F9211242F933F934F935F936F937F9373
:103C00008F939F93AF93BF93EF93FF93DF93CF93E4
:103C1000CDB7DEB780919C0290919D020196909362
:103C20009D0280939C0280919C0290919D02843120
:103C30009105A9F4ECE4F0E080E59DEE91838083AA
:103C400010929D0210929C0280919802909199028C
:103C5000009729F0E0919802F09199020995CF918F
:103C6000DF91FF91EF91BF91AF919F918F917F91E4
:103C70006F915F914F913F912F910F900FBE0F90D9
:103C80001F9018951F920F920FB60F9211242F9329
:103C90003F934F935F936F937F938F939F93AF93D4
:103CA000BF93EF93FF93DF93CF93CDB7DEB78091B0
:103CB0009E0290919F02019690939F0280939E0294
:103CC0002091A0023091A10280919E0290919F02CA
:103CD0002817390779F410929F0210929E02809162
:103CE0009A0290919B02009729F0E0919A02F0913C
:103CF0009B020995CF91DF91FF91EF91BF91AF9119
:103D00009F918F917F916F915F914F913F912F91F3
:103D10000F900FBE0F901F901895DF93CF93CDB7E4
:103D2000DEB7E0E2F0E08CE08083A1E2B0E0E1E227
:103D3000F0E080818E7F8C93A1E2B0E0E1E2F0E0E0
:103D400080818D7F8C93A6E5B0E0E6E5F0E0808190
:103D50008E7F8C93A6E5B0E0E6E5F0E0808184609C
:103D60008C93CF91DF910895DF93CF93CDB7DEB7DA
:103D7000A6E5B0E0E6E5F0E0808180628C93E6E5C0
:103D8000F0E080818823DCF7E1E2F0E08081882F99
:103D900090E0887F907088309105B1F7CF91DF91E6
:103DA0000895DF93CF93CDB7DEB7A6E5B0E0E6E5A3
:103DB000F0E0808180628C93A6E5B0E0E6E5F0E07B
:103DC000808180688C93E6E5F0E080818823DCF7D1
:103DD000E1E2F0E08081882F90E0887F9070803170
:103DE0009105B1F7CF91DF910895DF93CF93CDB7D0
:103DF000DEB7A6E5B0E0E6E5F0E0808180618C9377
:103E0000A6E5B0E0E6E5F0E0808180688C93CF9194
:103E1000DF910895DF93CF930F92CDB7DEB78983FB
:103E2000898188234CF1E3E2F0E08981880F808367
:103E3000A3E2B0E0E3E2F0E080818E7F8C93A6E520
:103E4000B0E0E6E5F0E080818F7D8C93A6E5B0E000
:103E5000E6E5F0E0808180688C93E6E5F0E0808123
:103E60008823DCF7E1E2F0E08081882F90E0887F12
:103E7000907088319105B1F70F90CF91DF9108953F
:103E8000DF93CF930F92CDB7DEB7898389818823E3
:103E90004CF1E3E2F0E08981880F8083A3E2B0E097
:103EA000E3E2F0E0808181608C93A6E5B0E0E6E596
:103EB000F0E080818F7D8C93A6E5B0E0E6E5F0E050
:103EC000808180688C93E6E5F0E080818823DCF7D0
:103ED000E1E2F0E08081882F90E0887F907080346C
:103EE0009105B1F70F90CF91DF910895DF93CF93B4
:103EF0000F92CDB7DEB78983E3E2F0E0898180835A
:103F0000A6E5B0E0E6E5F0E0808180688C93E6E528
:103F1000F0E080818823DCF7E1E2F0E08081882F07
:103F200090E0887F907088329105B1F70F90CF9123
:103F3000DF910895DF93CF9300D0CDB7DEB79A839A
:103F4000898389819A81009751F1A6E5B0E0E6E581
:103F5000F0E0808180648C93A6E5B0E0E6E5F0E0D7
:103F6000808180688C93E6E5F0E080818823DCF72F
:103F7000E1E2F0E08081882F90E0887F90708035CA
:103F80009105B1F7E3E2F0E08081E981FA81808375
:103F9000A6E5B0E0E6E5F0E080818F7B8C930F90A2
:103FA0000F90CF91DF910895DF93CF9300D0CDB7DD
:103FB000DEB79A83898389819A810097E1F0A6E52B
:103FC000B0E0E6E5F0E0808180688C93E6E5F0E023
:103FD00080818823DCF7E1E2F0E08081882F90E0A7
:103FE000887F907088359105B1F7E3E2F0E0808139
:103FF000E981FA8180830F900F90CF91DF9108952E
:10400000DF93CF93CDB7DEB7ABE2B0E0EBE2F0E009
:1040100080818D7F8C93E9E2F0E087E68083AAE2DD
:10402000B0E0EAE2F0E080818F778C93AAE2B0E022
:10403000EAE2F0E080818F7B8C93AAE2B0E0EAE2D2
:10404000F0E080818F7D8C93E0E4F0E086E880836F
:10405000AAE2B0E0EAE2F0E080818B7F8C93AAE2F2
:10406000B0E0EAE2F0E0808180618C93AAE2B0E007
:10407000EAE2F0E0808188608C93CF91DF9108952F
:10408000DF93CF930F92CDB7DEB78983EBE2F0E0F9
:1040900080818295869587708823C1F3ECE2F0E0F9
:1040A000898180830F90CF91DF910895DF93CF9323
:1040B00000D0CDB7DEB79A83898389819A81009732
:1040C00059F0EBE2F0E080818823DCF7ECE2F0E0ED
:1040D0008081E981FA8180830F900F90CF91DF91E9
:1040E0000895DF93CF9300D00F92CDB7DEB79B83B7
:1040F0008A838A819B810097D9F019820EC08981B9
:10410000282F30E08A819B81FC01E20FF31F808120
:104110000E94402089818F5F89838981282F30E028
:104120008A819B81FC01E20FF31F8081882339F78C
:104130000F900F900F90CF91DF910895DF93CF9361
:1041400000D00F92CDB7DEB79B838A838A819B8193
:10415000009739F119828981282F30E08A819B816B
:10416000820F931F0E94562089818F5F89838981E6
:10417000882F90E09C01215030408A819B81FC0176
:10418000E20FF31F8081833231F78981882F90E01D
:104190009C01215030408A819B81FC01E20FF31F7A
:1041A00010820F900F900F90CF91DF910895DF93C1
:1041B000CF930F92CDB7DEB783E063E09E012F5F10
:1041C0003F4FA9010E94CC0B89818823D9F083E05D
:1041D00060E040E00E948E0983E061E041E00E94DF
:1041E0008E090E94002082E067E041E00E94AD0A53
:1041F00083E066E041E00E94AD0A80E690E00E9424
:1042000071201AC083E060E040E00E948E0983E0E4
:1042100061E041E00E948E090E94002082E067E098
:1042200040E00E94AD0A83E066E040E00E94AD0AF3
:1042300083E790E00E9471200F90CF91DF91089565
:10424000DF93CF93CDB7DEB70E94E21382E067E041
:1042500041E00E948E0983E063E040E00E948E0905
:1042600083E066E041E00E948E0981E063E00E9405
:104270009A1187ED90E20E941D1381E00E9499122D
:104280000E9454218130910539F40E9474260E94C5
:104290009E270E948F2502C00E94B92783E066E016
:1042A00041E00E94AD0AFACF0F931F93DF93CF93A3
:1042B000CDB7DEB7C056D0400FB6F894DEBF0FBE04
:1042C000CDBF0E941727DC01CB01FE01E65AFF4F4C
:1042D00080839183A283B383FE01EA5AFF4F108249
:1042E000118212821382FE01EB5AFF4F10820E944C
:1042F00044150E94FE1383E066E041E00E948E09AF
:1043000080E062E00E944C1985E890E00E945C1811
:10431000FE01EF5AFF4F80E090E0AAE7B4E480830B
:104320009183A283B3838E01035B1F4FFE01EF5A7B
:10433000FF4F608171818281938120E030E04AE704
:1043400055E40E941F02DC01CB01F80180839183B8
:10435000A283B383FE01E35BFF4F608171818281A1
:10436000938120E030E040E85FE30E942504882349
:1043700044F4FE01E55BFF4F81E090E09183808390
:1043800064C0FE01E35BFF4F608171818281938194
:1043900020E03FEF4FE757E40E94C50318160CF0EA
:1043A00043C0FE01EF5AFF4F60817181828193818A
:1043B00020E030E040E251E40E941F02DC01CB012A
:1043C0008E01055B1F4FBC01CD010E944900DC013D
:1043D000CB01F801918380831FC0FE01E75BFF4F93
:1043E00080E991E091838083FE01E75BFF4F80814C
:1043F00091810197F1F7FE01E75BFF4F9183808385
:10440000DE01A55BBF4FFE01E55BFF4F808191811F
:10441000019711969C938E93FE01E55BFF4F80817F
:1044200091810097D1F627C08E01055B1F4FFE01D9
:10443000E35BFF4F60817181828193810E9449001B
:10444000DC01CB01F80191838083DE01A95BBF4FC2
:10445000FE01E55BFF4F808191818D939C93FE016E
:10446000E95BFF4F808191810197F1F7FE01E95BE4
:10447000FF4F918380830E94891882E990E00E9417
:104480005C18FE01ED5BFF4F80E090E0AAE7B4E42A
:1044900080839183A283B3838E01015C1F4FFE0151
:1044A000ED5BFF4F608171818281938120E030E07C
:1044B0004AE755E40E941F02DC01CB01F80180832A
:1044C0009183A283B383FE01FF9660817181828113
:1044D000938120E030E040E85FE30E9425048823D8
:1044E0002CF481E090E09EAF8DAF46C0FE01FF96B8
:1044F000608171818281938120E03FEF4FE757E433
:104500000E94C503181664F5FE01ED5BFF4F608144
:1045100071818281938120E030E040E251E40E9489
:104520001F02DC01CB01BC01CD010E944900DC016E
:10453000CB019EAF8DAF0FC080E991E09CAF8BAFF8
:104540008BAD9CAD0197F1F79CAF8BAF8DAD9EAD60
:1045500001979EAF8DAF8DAD9EAD009769F716C0E8
:10456000FE01FF9660817181828193810E944900E2
:10457000DC01CB019EAF8DAF8DAD9EAD9AAF89AF03
:1045800089AD9AAD0197F1F79AAF89AF0E9489186A
:10459000A9C2CE01825A9F4F0E945114FE01E25AD5
:1045A000FF4F80818F3FA9F3FE01E25AFF4F8081C8
:1045B0008D3309F06CC2FE01E65AFF4FDE01AA5AA4
:1045C000BF4F20813181428153818D919D910D900A
:1045D000BC91A02D281739074A075B0709F09BC03B
:1045E00083E060E040E00E948E0983E061E041E00A
:1045F0000E948E090E9400200E94891881EA90E0A2
:104600000E945C188CEA90E00E947120FE01EA5A38
:10461000FF4F108211821282138280E090E0AAE79D
:10462000B4E48DAB9EABAFABB8AF6DA97EA98FA93B
:1046300098AD20E030E04AE755E40E941F02DC011B
:10464000CB0189AB9AABABABBCAB69A97AA98BA9FF
:104650009CA920E030E040E85FE30E942504882325
:104660002CF481E090E098AB8FA73FC069A97AA9AC
:104670008BA99CA920E03FEF4FE757E40E94C503B8
:1046800018164CF56DA97EA98FA998AD20E030E0F1
:1046900040E251E40E941F02DC01CB01BC01CD01CC
:1046A0000E944900DC01CB0198AB8FA70FC080E9C5
:1046B00091E09EA78DA78DA59EA50197F1F79EA7D6
:1046C0008DA78FA598A9019798AB8FA78FA598A9BB
:1046D000009769F714C069A97AA98BA99CA90E94BF
:1046E0004900DC01CB0198AB8FA78FA598A99CA7A7
:1046F0008BA78BA59CA50197F1F79CA78BA70E9480
:104700008918FE01EB5AFF4F83E08083F1E0A09609
:10471000FFAFA097EFC1DE01AB5ABF4FFE01EB5ACE
:10472000FF4F80818F5F8C93FE01EB5AFF4F80819A
:10473000833009F49AC083E060E040E00E948E0973
:1047400083E061E041E00E948E090E9400200E9407
:1047500089188BEC90E00E945C1881E060E00E9478
:104760004C1986ED90E00E945C1880E090E0AAE78A
:10477000B4E48FA398A7A9A7BAA76FA178A589A524
:104780009AA520E030E04AE755E40E941F02DC01D0
:10479000CB018BA39CA3ADA3BEA36BA17CA18DA1D8
:1047A0009EA120E030E040E85FE30E9425048823DA
:1047B0002CF481E090E09AA389A33FC06BA17CA177
:1047C0008DA19EA120E03FEF4FE757E40E94C50373
:1047D00018164CF56FA178A589A59AA520E030E0C0
:1047E00040E251E40E941F02DC01CB01BC01CD017B
:1047F0000E944900DC01CB019AA389A30FC080E984
:1048000091E098A38F8F8F8D98A10197F1F798A3CE
:104810008F8F89A19AA101979AA389A389A19AA1AF
:10482000009769F714C06BA17CA18DA19EA10E9485
:104830004900DC01CB019AA389A389A19AA19E8F8B
:104840008D8F8D8D9E8D0197F1F79E8F8D8F0E949C
:104850008918FE01EA5AFF4F1082118212821382D8
:1048600080EE90E00E9471207AC00E9489188BEC43
:1048700090E00E945C1880E090E0AAE7B4E4898FA1
:104880009A8FAB8FBC8F698D7A8D8B8D9C8D20E03C
:1048900030E04AE755E40E941F02DC01CB018D8B1A
:1048A0009E8BAF8BB88F6D897E898F89988D20E024
:1048B00030E040E85FE30E94250488232CF481E087
:1048C00090E09C8B8B8B3FC06D897E898F89988D02
:1048D00020E03FEF4FE757E40E94C50318164CF560
:1048E000698D7A8D8B8D9C8D20E030E040E251E423
:1048F0000E941F02DC01CB01BC01CD010E944900D6
:10490000DC01CB019C8B8B8B0FC080E991E09A8BF3
:10491000898B89899A890197F1F79A8B898B8B8981
:104920009C8901979C8B8B8B8B899C89009769F75D
:1049300014C06D897E898F89988D0E944900DC01A1
:10494000CB019C8B8B8B8B899C89988B8F878F85D8
:1049500098890197F1F7988B8F870E948918FE013B
:10496000EB5AFF4F8081833009F0BCC083E060E0E8
:1049700040E00E948E0983E061E041E00E948E09E0
:104980000E94002083E066E041E00E94AD0A87EFCC
:1049900090E00E945C1880E090E0AAE7B4E48B8786
:1049A0009C87AD87BE876B857C858D859E8520E045
:1049B00030E04AE755E40E941F02DC01CB018F83FF
:1049C0009887A987BA876F81788589859A8520E03D
:1049D00030E040E85FE30E94250488232CF481E066
:1049E00090E09E838D833FC06F81788589859A850D
:1049F00020E03FEF4FE757E40E94C50318164CF53F
:104A00006B857C858D859E8520E030E040E251E419
:104A10000E941F02DC01CB01BC01CD010E944900B4
:104A2000DC01CB019E838D830FC080E991E09C83E4
:104A30008B838B819C810197F1F79C838B838D8184
:104A40009E8101979E838D838D819E81009769F75A
:104A500014C06F81788589859A850E944900DC01A0
:104A6000CB019E838D838D819E819A8389838981E9
:104A70009A810197F1F79A8389830E94891886E0C9
:104A800091E00E947120A0961FAEA09733C0FE0156
:104A9000EA5AFF4F80819181A281B3812AE030E000
:104AA00040E050E0BC01CD010E94CA279B01AC014F
:104AB000FE01E25AFF4F8081882F90E0C097AA271D
:104AC00097FDA095BA2FFE01EA5AFF4F820F931F60
:104AD000A41FB51F80839183A283B3838AE20E94BF
:104AE0001C1857CDFE01EB5AFF4F8081833008F42C
:104AF00050CD06C0A0968FADA097A1968FAFA1977D
:104B0000A1968FADA197C05ADF4F0FB6F894DEBFC4
:104B10000FBECDBFCF91DF911F910F910895DF930D
:104B2000CF93CDB7DEB72F970FB6F894DEBF0FBE89
:104B3000CDBF83E00E94861A80E00E94D20885E102
:104B400091E00E945C188F85882F90E0A0E0B0E093
:104B5000BC01CD010E94701983E40E941C189E01C3
:104B6000215F3F4F83E0B9010E94981A8F858F30F3
:104B700058F40E94850981E060E00E944C198EE1A2
:104B800091E00E945C183BC08F858F3088F08F8544
:104B9000893170F480E060E04EE10E94140981E008
:104BA00060E00E944C198CE291E00E945C1827C0E2
:104BB0008F85893188F08F85833270F480E060E0E2
:104BC0004BE40E94140981E060E00E944C198BE3E1
:104BD00091E00E945C1813C08F85833280F08F852E
:104BE000833368F480E060E044E60E94140981E0C9
:104BF00060E00E944C198AE491E00E945C1880E019
:104C000090E0AAEFB3E48B879C87AD87BE876B8566
:104C10007C858D859E8520E030E04AE755E40E9442
:104C20001F02DC01CB018F839887A987BA876F8128
:104C3000788589859A8520E030E040E85FE30E942E
:104C4000250488232CF481E090E09E838D833FC06F
:104C50006F81788589859A8520E03FEF4FE757E49B
:104C60000E94C50318164CF56B857C858D859E8545
:104C700020E030E040E251E40E941F02DC01CB0161
:104C8000BC01CD010E944900DC01CB019E838D83D4
:104C90000FC080E991E09C838B838B819C8101977D
:104CA000F1F79C838B838D819E8101979E838D83F9
:104CB0008D819E81009769F714C06F817885898501
:104CC0009A850E944900DC01CB019E838D838D81F2
:104CD0009E819A83898389819A810197F1F79A83CA
:104CE00089830E9489182BCFDF93CF93CDB7DEB78E
:104CF0002E970FB6F894DEBF0FBECDBF83E060E005
:104D000040E00E948E0983E061E041E00E948E094C
:104D10000E9400200E94DF1A60E070E084EB92E4C1
:104D20000E94ED1A8AE591E00E945C188AE591E004
:104D30000E94712080E090E0A8E4B4E48B879C8717
:104D4000AD87BE876B857C858D859E8520E030E0B4
:104D50004AE755E40E941F02DC01CB018F8398874C
:104D6000A987BA876F81788589859A8520E030E0A8
:104D700040E85FE30E94250488232CF481E090E062
:104D80009E838D833FC06F81788589859A8520E0D9
:104D90003FEF4FE757E40E94C50318164CF56B85AB
:104DA0007C858D859E8520E030E040E251E40E94C4
:104DB0001F02DC01CB01BC01CD010E944900DC01D6
:104DC000CB019E838D830FC080E991E09C838B8310
:104DD0008B819C810197F1F79C838B838D819E81D0
:104DE00001979E838D838D819E81009769F714C002
:104DF0006F81788589859A850E944900DC01CB0105
:104E00009E838D838D819E819A83898389819A81F6
:104E10000197F1F79A8389830E9489182E960FB61D
:104E2000F894DEBF0FBECDBFCF91DF910895DF9321
:104E3000CF93CDB7DEB76A970FB6F894DEBF0FBE3B
:104E4000CDBF1D8219821A821B821C82CE0106965A
:104E50009F8B8E8BEAE6F1E0F98FE88FF6E0FA8F10
:104E6000E88DF98D0080888D998D0196998F888FB6
:104E7000EE89FF8900828E899F8901969F8B8E8B98
:104E80009A8D91509A8FEA8DEE2351F70E94CF0EA2
:104E90009E012A5F3F4F88E090E067E0A9010E94F1
:104EA0001A109E01245F3F4F88E090E067E0A9015F
:104EB0000E94D11029C089819A81AB81BC812AE0EE
:104EC00030E040E050E0BC01CD010E94CA27AB01B8
:104ED000BC018D81282F30E0CE010C96FC01E20F41
:104EE000F31F8081882F90E0C097AA2797FDA09597
:104EF000BA2F840F951FA61FB71F89839A83AB8390
:104F0000BC838D818F5F8D838D81282F30E0CE0112
:104F10000C96FC01E20FF31F8081882361F68981E2
:104F20009A81AB81BC81BC01CD016A960FB6F89421
:104F3000DEBF0FBECDBFCF91DF910895DF93CF933A
:104F4000CDB7DEB781E060E041E00E948E0981E0EC
:104F500060E041E00E94AD0A83E062E041E00E942F
:104F60008E0983E062E041E00E94AD0ACF91DF91BB
:104F70000895DF93CF93CDB7DEB781E060E040E0E6
:104F80000E94AD0A83E062E040E00E94AD0ACF914A
:104F9000DF910895629FD001739FF001829FE00D21
:104FA000F11D649FE00DF11D929FF00D839FF00DA8
:104FB000749FF00D659FF00D9927729FB00DE11D54
:104FC000F91F639FB00DE11DF91FBD01CF01112431
:104FD0000895AA1BBB1B51E107C0AA1FBB1FA61740
:104FE000B70710F0A61BB70B881F991F5A95A9F792
:104FF00080959095BC01CD01089597FB092E072659
:105000000AD077FD04D0E5DF06D000201AF47095B1
:1050100061957F4F0895F6F7909581959F4F08957C
:10502000A1E21A2EAA1BBB1BFD010DC0AA1FBB1FAC
:10503000EE1FFF1FA217B307E407F50720F0A21B1E
:10504000B30BE40BF50B661F771F881F991F1A948B
:1050500069F760957095809590959B01AC01BD01B5
:10506000CF0108952F923F924F925F926F927F925D
:105070008F929F92AF92BF92CF92DF92EF92FF9268
:105080000F931F93CF93DF93CDB7DEB7CA1BDB0B14
:105090000FB6F894DEBF0FBECDBF09942A883988B9
:1050A00048885F846E847D848C849B84AA84B984C0
:1050B000C884DF80EE80FD800C811B81AA81B981CC
:1050C000CE0FD11D0FB6F894DEBF0FBECDBFED01E0
:0650D0000895F894FFCFE3
:1050D60054484552452049532041204649524521CE
:1050E600212000544845204649524520495320472F
:1050F6004F4E45200077656C636F6D6520686F6D58
:105106006500456E7465722054686520506173733E
:1051160000526967687420706173730057656C6329
:105126006F6D6520746F20796F7572207377656572
:105136007420686F6D65203C33200077726F6E6750
:1051460020706173730074727920616761696E0003
:10515600536F6D656F6E652074727920746F206C65
:105166006F6720696E200073797374656D20626CB9
:105176006F636B656400414C41524D204953204F8B
:105186004E2021200054656D702069733A0041431A
:105196002053595354454D204F4646004143205312
:1051A600595354204F4E2033302500414320535944
:1051B6005354204F4E203735250041432053595331
:1051C60054204F4E203130302500446F6F722049F5
:1051D60073204F70656E65642000313233343500BC
:1051E60000000000000000000001020203030303A8
:1051F6000404040404040404050505050505050561
:105206000505050505050505060606060606060640
:105216000606060606060606060606060606060628
:105226000606060606060606070707070707070710
:1052360007070707070707070707070707070707F8
:1052460007070707070707070707070707070707E8
:1052560007070707070707070707070707070707D8
:1052660007070707070707070808080808080808C0
:1052760008080808080808080808080808080808A8
:105286000808080808080808080808080808080898
:105296000808080808080808080808080808080888
:1052A6000808080808080808080808080808080878
:1052B6000808080808080808080808080808080868
:1052C6000808080808080808080808080808080858
:1052D6000808080808080808080808080808080848
:1052E60008080808080808083738392F343536788A
:0852F6003132332D63303D2BF2
:00000001FF
